{
  "contractName": "TodoList",
  "abi": [
    {
      "constant": true,
      "inputs": [
        {
          "name": "",
          "type": "uint256"
        }
      ],
      "name": "tasks",
      "outputs": [
        {
          "name": "id",
          "type": "uint256"
        },
        {
          "name": "uid",
          "type": "uint256"
        },
        {
          "name": "cgpa1",
          "type": "string"
        },
        {
          "name": "cgpa2",
          "type": "string"
        },
        {
          "name": "cgpa3",
          "type": "string"
        },
        {
          "name": "cgpa4",
          "type": "string"
        },
        {
          "name": "Report",
          "type": "string"
        },
        {
          "name": "Certificate",
          "type": "string"
        }
      ],
      "payable": false,
      "stateMutability": "view",
      "type": "function",
      "signature": "0x8d977672"
    },
    {
      "constant": true,
      "inputs": [],
      "name": "Count",
      "outputs": [
        {
          "name": "",
          "type": "uint256"
        }
      ],
      "payable": false,
      "stateMutability": "view",
      "type": "function",
      "signature": "0x93a8333e"
    },
    {
      "inputs": [],
      "payable": false,
      "stateMutability": "nonpayable",
      "type": "constructor",
      "signature": "constructor"
    },
    {
      "anonymous": false,
      "inputs": [
        {
          "indexed": false,
          "name": "id",
          "type": "uint256"
        },
        {
          "indexed": false,
          "name": "uid",
          "type": "uint256"
        },
        {
          "indexed": false,
          "name": "cgpa1",
          "type": "string"
        },
        {
          "indexed": false,
          "name": "cgpa2",
          "type": "string"
        },
        {
          "indexed": false,
          "name": "cgpa3",
          "type": "string"
        },
        {
          "indexed": false,
          "name": "cgpa4",
          "type": "string"
        },
        {
          "indexed": false,
          "name": "Report",
          "type": "string"
        },
        {
          "indexed": false,
          "name": "Certificate",
          "type": "string"
        }
      ],
      "name": "TaskCreated",
      "type": "event",
      "signature": "0x7d0eb7a7325349d6cdabafdd0ca70ddc567691904c2343da0a24064153309467"
    },
    {
      "anonymous": false,
      "inputs": [
        {
          "indexed": false,
          "name": "id",
          "type": "uint256"
        }
      ],
      "name": "TaskCompleted",
      "type": "event",
      "signature": "0xc1fa7142cfb933d0855114a3bffde296944c30b727f297c14d0db4d553d3a5c7"
    },
    {
      "constant": false,
      "inputs": [
        {
          "name": "_uid",
          "type": "uint256"
        },
        {
          "name": "_cgpa1",
          "type": "string"
        },
        {
          "name": "_cgpa2",
          "type": "string"
        },
        {
          "name": "_cgpa3",
          "type": "string"
        },
        {
          "name": "_cgpa4",
          "type": "string"
        },
        {
          "name": "_report",
          "type": "string"
        },
        {
          "name": "_certi",
          "type": "string"
        }
      ],
      "name": "createTask",
      "outputs": [],
      "payable": false,
      "stateMutability": "nonpayable",
      "type": "function",
      "signature": "0x9e42bf1d"
    },
    {
      "constant": false,
      "inputs": [
        {
          "name": "_id",
          "type": "uint256"
        }
      ],
      "name": "toggleCompleted",
      "outputs": [],
      "payable": false,
      "stateMutability": "nonpayable",
      "type": "function",
      "signature": "0x455f5024"
    }
  ],
  "bytecode": "0x6080604052600080553480156200001557600080fd5b506200017863782bdafe6040805190810160405280600181526020017f39000000000000000000000000000000000000000000000000000000000000008152506040805190810160405280600281526020017f31300000000000000000000000000000000000000000000000000000000000008152506040805190810160405280600181526020017f38000000000000000000000000000000000000000000000000000000000000008152506040805190810160405280600181526020017f37000000000000000000000000000000000000000000000000000000000000008152506040805190810160405280600381526020017f59657300000000000000000000000000000000000000000000000000000000008152506040805190810160405280600381526020017f204e6f00000000000000000000000000000000000000000000000000000000008152506200017e640100000000026401000000009004565b62000602565b600080546001908101808355604080516101008101825282815260208082018d81528284018d8152606084018d9052608084018c905260a084018b905260c084018a905260e0840189905294875285825292909520815181559151938201939093559051805192939192620001fa92600285019201906200055d565b5060608201518051620002189160038401916020909101906200055d565b5060808201518051620002369160048401916020909101906200055d565b5060a08201518051620002549160058401916020909101906200055d565b5060c08201518051620002729160068401916020909101906200055d565b5060e08201518051620002909160078401916020909101906200055d565b509050507f7d0eb7a7325349d6cdabafdd0ca70ddc567691904c2343da0a24064153309467600054888888888888886040518089815260200188815260200180602001806020018060200180602001806020018060200187810387528d818151815260200191508051906020019080838360005b838110156200031e57818101518382015260200162000304565b50505050905090810190601f1680156200034c5780820380516001836020036101000a031916815260200191505b5087810386528c5181528c516020918201918e019080838360005b838110156200038157818101518382015260200162000367565b50505050905090810190601f168015620003af5780820380516001836020036101000a031916815260200191505b5087810385528b5181528b516020918201918d019080838360005b83811015620003e4578181015183820152602001620003ca565b50505050905090810190601f168015620004125780820380516001836020036101000a031916815260200191505b5087810384528a5181528a516020918201918c019080838360005b83811015620004475781810151838201526020016200042d565b50505050905090810190601f168015620004755780820380516001836020036101000a031916815260200191505b5087810383528951815289516020918201918b019080838360005b83811015620004aa57818101518382015260200162000490565b50505050905090810190601f168015620004d85780820380516001836020036101000a031916815260200191505b5087810382528851815288516020918201918a019080838360005b838110156200050d578181015183820152602001620004f3565b50505050905090810190601f1680156200053b5780820380516001836020036101000a031916815260200191505b509e50505050505050505050505050505060405180910390a150505050505050565b828054600181600116156101000203166002900490600052602060002090601f016020900481019282601f10620005a057805160ff1916838001178555620005d0565b82800160010185558215620005d0579182015b82811115620005d0578251825591602001919060010190620005b3565b50620005de929150620005e2565b5090565b620005ff91905b80821115620005de5760008155600101620005e9565b90565b6113da80620006126000396000f3fe6080604052600436106100615763ffffffff7c0100000000000000000000000000000000000000000000000000000000600035041663455f502481146100665780638d9776721461009257806393a8333e146103405780639e42bf1d14610367575b600080fd5b34801561007257600080fd5b506100906004803603602081101561008957600080fd5b50356106c4565b005b34801561009e57600080fd5b506100bc600480360360208110156100b557600080fd5b5035610b74565b6040518089815260200188815260200180602001806020018060200180602001806020018060200187810387528d818151815260200191508051906020019080838360005b83811015610119578181015183820152602001610101565b50505050905090810190601f1680156101465780820380516001836020036101000a031916815260200191505b5087810386528c5181528c516020918201918e019080838360005b83811015610179578181015183820152602001610161565b50505050905090810190601f1680156101a65780820380516001836020036101000a031916815260200191505b5087810385528b5181528b516020918201918d019080838360005b838110156101d95781810151838201526020016101c1565b50505050905090810190601f1680156102065780820380516001836020036101000a031916815260200191505b5087810384528a5181528a516020918201918c019080838360005b83811015610239578181015183820152602001610221565b50505050905090810190601f1680156102665780820380516001836020036101000a031916815260200191505b5087810383528951815289516020918201918b019080838360005b83811015610299578181015183820152602001610281565b50505050905090810190601f1680156102c65780820380516001836020036101000a031916815260200191505b5087810382528851815288516020918201918a019080838360005b838110156102f95781810151838201526020016102e1565b50505050905090810190601f1680156103265780820380516001836020036101000a031916815260200191505b509e50505050505050505050505050505060405180910390f35b34801561034c57600080fd5b50610355610f06565b60408051918252519081900360200190f35b34801561037357600080fd5b50610090600480360360e081101561038a57600080fd5b813591908101906040810160208201356401000000008111156103ac57600080fd5b8201836020820111156103be57600080fd5b803590602001918460018302840111640100000000831117156103e057600080fd5b91908080601f016020809104026020016040519081016040528093929190818152602001838380828437600092019190915250929594936020810193503591505064010000000081111561043357600080fd5b82018360208201111561044557600080fd5b8035906020019184600183028401116401000000008311171561046757600080fd5b91908080601f01602080910402602001604051908101604052809392919081815260200183838082843760009201919091525092959493602081019350359150506401000000008111156104ba57600080fd5b8201836020820111156104cc57600080fd5b803590602001918460018302840111640100000000831117156104ee57600080fd5b91908080601f016020809104026020016040519081016040528093929190818152602001838380828437600092019190915250929594936020810193503591505064010000000081111561054157600080fd5b82018360208201111561055357600080fd5b8035906020019184600183028401116401000000008311171561057557600080fd5b91908080601f01602080910402602001604051908101604052809392919081815260200183838082843760009201919091525092959493602081019350359150506401000000008111156105c857600080fd5b8201836020820111156105da57600080fd5b803590602001918460018302840111640100000000831117156105fc57600080fd5b91908080601f016020809104026020016040519081016040528093929190818152602001838380828437600092019190915250929594936020810193503591505064010000000081111561064f57600080fd5b82018360208201111561066157600080fd5b8035906020019184600183028401116401000000008311171561068357600080fd5b91908080601f016020809104026020016040519081016040528093929190818152602001838380828437600092019190915250929550610f0c945050505050565b6106cc6112cd565b60008281526001602081815260409283902083516101008082018652825482528285015482850152600280840180548851978116159093026000190190921604601f81018590048502860185018752808652919592949286019390919083018282801561077a5780601f1061074f5761010080835404028352916020019161077a565b820191906000526020600020905b81548152906001019060200180831161075d57829003601f168201915b505050918352505060038201805460408051602060026001851615610100026000190190941693909304601f810184900484028201840190925281815293820193929183018282801561080e5780601f106107e35761010080835404028352916020019161080e565b820191906000526020600020905b8154815290600101906020018083116107f157829003601f168201915b505050918352505060048201805460408051602060026001851615610100026000190190941693909304601f81018490048402820184019092528181529382019392918301828280156108a25780601f10610877576101008083540402835291602001916108a2565b820191906000526020600020905b81548152906001019060200180831161088557829003601f168201915b505050918352505060058201805460408051602060026001851615610100026000190190941693909304601f81018490048402820184019092528181529382019392918301828280156109365780601f1061090b57610100808354040283529160200191610936565b820191906000526020600020905b81548152906001019060200180831161091957829003601f168201915b505050918352505060068201805460408051602060026001851615610100026000190190941693909304601f81018490048402820184019092528181529382019392918301828280156109ca5780601f1061099f576101008083540402835291602001916109ca565b820191906000526020600020905b8154815290600101906020018083116109ad57829003601f168201915b505050918352505060078201805460408051602060026001851615610100026000190190941693909304601f8101849004840282018401909252818152938201939291830182828015610a5e5780601f10610a3357610100808354040283529160200191610a5e565b820191906000526020600020905b815481529060010190602001808311610a4157829003601f168201915b5050505050815250509050806001600084815260200190815260200160002060008201518160000155602082015181600101556040820151816002019080519060200190610aad929190611313565b5060608201518051610ac9916003840191602090910190611313565b5060808201518051610ae5916004840191602090910190611313565b5060a08201518051610b01916005840191602090910190611313565b5060c08201518051610b1d916006840191602090910190611313565b5060e08201518051610b39916007840191602090910190611313565b50506040805184815290517fc1fa7142cfb933d0855114a3bffde296944c30b727f297c14d0db4d553d3a5c792509081900360200190a15050565b6001602052806000526040600020600091509050806000015490806001015490806002018054600181600116156101000203166002900480601f016020809104026020016040519081016040528092919081815260200182805460018160011615610100020316600290048015610c2c5780601f10610c0157610100808354040283529160200191610c2c565b820191906000526020600020905b815481529060010190602001808311610c0f57829003601f168201915b5050505060038301805460408051602060026001851615610100026000190190941693909304601f8101849004840282018401909252818152949594935090830182828015610cbc5780601f10610c9157610100808354040283529160200191610cbc565b820191906000526020600020905b815481529060010190602001808311610c9f57829003601f168201915b5050505060048301805460408051602060026001851615610100026000190190941693909304601f8101849004840282018401909252818152949594935090830182828015610d4c5780601f10610d2157610100808354040283529160200191610d4c565b820191906000526020600020905b815481529060010190602001808311610d2f57829003601f168201915b5050505060058301805460408051602060026001851615610100026000190190941693909304601f8101849004840282018401909252818152949594935090830182828015610ddc5780601f10610db157610100808354040283529160200191610ddc565b820191906000526020600020905b815481529060010190602001808311610dbf57829003601f168201915b5050505060068301805460408051602060026001851615610100026000190190941693909304601f8101849004840282018401909252818152949594935090830182828015610e6c5780601f10610e4157610100808354040283529160200191610e6c565b820191906000526020600020905b815481529060010190602001808311610e4f57829003601f168201915b5050505060078301805460408051602060026001851615610100026000190190941693909304601f8101849004840282018401909252818152949594935090830182828015610efc5780601f10610ed157610100808354040283529160200191610efc565b820191906000526020600020905b815481529060010190602001808311610edf57829003601f168201915b5050505050905088565b60005481565b600080546001908101808355604080516101008101825282815260208082018d81528284018d8152606084018d9052608084018c905260a084018b905260c084018a905260e0840189905294875285825292909520815181559151938201939093559051805192939192610f869260028501920190611313565b5060608201518051610fa2916003840191602090910190611313565b5060808201518051610fbe916004840191602090910190611313565b5060a08201518051610fda916005840191602090910190611313565b5060c08201518051610ff6916006840191602090910190611313565b5060e08201518051611012916007840191602090910190611313565b509050507f7d0eb7a7325349d6cdabafdd0ca70ddc567691904c2343da0a24064153309467600054888888888888886040518089815260200188815260200180602001806020018060200180602001806020018060200187810387528d818151815260200191508051906020019080838360005b8381101561109e578181015183820152602001611086565b50505050905090810190601f1680156110cb5780820380516001836020036101000a031916815260200191505b5087810386528c5181528c516020918201918e019080838360005b838110156110fe5781810151838201526020016110e6565b50505050905090810190601f16801561112b5780820380516001836020036101000a031916815260200191505b5087810385528b5181528b516020918201918d019080838360005b8381101561115e578181015183820152602001611146565b50505050905090810190601f16801561118b5780820380516001836020036101000a031916815260200191505b5087810384528a5181528a516020918201918c019080838360005b838110156111be5781810151838201526020016111a6565b50505050905090810190601f1680156111eb5780820380516001836020036101000a031916815260200191505b5087810383528951815289516020918201918b019080838360005b8381101561121e578181015183820152602001611206565b50505050905090810190601f16801561124b5780820380516001836020036101000a031916815260200191505b5087810382528851815288516020918201918a019080838360005b8381101561127e578181015183820152602001611266565b50505050905090810190601f1680156112ab5780820380516001836020036101000a031916815260200191505b509e50505050505050505050505050505060405180910390a150505050505050565b6101006040519081016040528060008152602001600081526020016060815260200160608152602001606081526020016060815260200160608152602001606081525090565b828054600181600116156101000203166002900490600052602060002090601f016020900481019282601f1061135457805160ff1916838001178555611381565b82800160010185558215611381579182015b82811115611381578251825591602001919060010190611366565b5061138d929150611391565b5090565b6113ab91905b8082111561138d5760008155600101611397565b9056fea165627a7a72305820dc02eb4c227ee27b25d2cf486c488cfbb5d5d6c3d3273e82af1bbfbac0ed6b1c0029",
  "source": "pragma solidity ^0.5.0;\n\ncontract TodoList {\n  uint public Count = 0;\n\n  struct Task{\n    uint id;\n    uint uid;\n    string cgpa1;\n    string cgpa2;\n    string cgpa3;\n    string cgpa4;\n    string Report;\n    string Certificate;\n  }\n\n  mapping (uint => Task) public tasks;\n\n  event TaskCreated(\n    uint id,\n    uint uid,\n    string cgpa1,\n    string cgpa2,\n    string cgpa3,\n    string cgpa4,\n    string Report,\n    string Certificate\n  );\n\n  event TaskCompleted(\n    uint id\n  );\n\n  constructor() public{\n    createTask(2016140030, \"9\", \"10\", \"8\", \"7\", \"Yes\", \" No\");\n  }\n\n  function createTask(uint _uid, string memory _cgpa1, string memory _cgpa2, string memory _cgpa3, string memory _cgpa4, string memory _report, string memory _certi) public {\n    Count ++;\n    tasks[Count] = Task(Count, _uid, _cgpa1, _cgpa2, _cgpa3, _cgpa4, _report, _certi);\n    emit TaskCreated(Count, _uid, _cgpa1, _cgpa2, _cgpa3, _cgpa4, _report, _certi);\n  }\n\n  function toggleCompleted(uint _id) public{\n    Task memory _task = tasks[_id];\n    tasks[_id] = _task;\n    emit TaskCompleted(_id);\n  }\n}\n",
  "sourcePath": "C:/xampp/htdocs/new dapp/contracts/TodoList.sol",
  "compiler": {
    "name": "solc",
    "version": "0.5.0+commit.1d4f565a.Emscripten.clang"
  },
  "schemaVersion": "3.0.2",
  "updatedAt": "2019-04-10T18:43:46.916Z",
  "devdoc": {
    "methods": {}
  },
  "userdoc": {
    "methods": {}
  }
}