{
  "contractName": "TodoList",
  "abi": [
    {
      "constant": true,
      "inputs": [
        {
          "name": "",
          "type": "uint256"
        }
      ],
      "name": "tasks",
      "outputs": [
        {
          "name": "id",
          "type": "uint256"
        },
        {
          "name": "name",
          "type": "string"
        },
        {
          "name": "branch",
          "type": "string"
        },
        {
          "name": "interest",
          "type": "string"
        },
        {
          "name": "cgpa",
          "type": "string"
        },
        {
          "name": "intern",
          "type": "string"
        },
        {
          "name": "tech1",
          "type": "string"
        },
        {
          "name": "tech2",
          "type": "string"
        }
      ],
      "payable": false,
      "stateMutability": "view",
      "type": "function",
      "signature": "0x8d977672"
    },
    {
      "constant": true,
      "inputs": [],
      "name": "Count",
      "outputs": [
        {
          "name": "",
          "type": "uint256"
        }
      ],
      "payable": false,
      "stateMutability": "view",
      "type": "function",
      "signature": "0x93a8333e"
    },
    {
      "inputs": [],
      "payable": false,
      "stateMutability": "nonpayable",
      "type": "constructor",
      "signature": "constructor"
    },
    {
      "anonymous": false,
      "inputs": [
        {
          "indexed": false,
          "name": "id",
          "type": "uint256"
        },
        {
          "indexed": false,
          "name": "name",
          "type": "string"
        },
        {
          "indexed": false,
          "name": "branch",
          "type": "string"
        },
        {
          "indexed": false,
          "name": "interest",
          "type": "string"
        },
        {
          "indexed": false,
          "name": "cgpa",
          "type": "string"
        },
        {
          "indexed": false,
          "name": "intern",
          "type": "string"
        },
        {
          "indexed": false,
          "name": "tech1",
          "type": "string"
        },
        {
          "indexed": false,
          "name": "tech2",
          "type": "string"
        }
      ],
      "name": "TaskCreated",
      "type": "event",
      "signature": "0xf3f3f9b45fc71aca4cd5666dc8c4c43642f83c73cc4b177d25a3bc6df1e1ff9e"
    },
    {
      "anonymous": false,
      "inputs": [
        {
          "indexed": false,
          "name": "id",
          "type": "uint256"
        }
      ],
      "name": "TaskCompleted",
      "type": "event",
      "signature": "0xc1fa7142cfb933d0855114a3bffde296944c30b727f297c14d0db4d553d3a5c7"
    },
    {
      "constant": false,
      "inputs": [
        {
          "name": "_name",
          "type": "string"
        },
        {
          "name": "_branch",
          "type": "string"
        },
        {
          "name": "_interest",
          "type": "string"
        },
        {
          "name": "_cgpa",
          "type": "string"
        },
        {
          "name": "_intern",
          "type": "string"
        },
        {
          "name": "_tech1",
          "type": "string"
        },
        {
          "name": "_tech2",
          "type": "string"
        }
      ],
      "name": "createTask",
      "outputs": [],
      "payable": false,
      "stateMutability": "nonpayable",
      "type": "function",
      "signature": "0x2aaf5fbd"
    },
    {
      "constant": false,
      "inputs": [
        {
          "name": "_id",
          "type": "uint256"
        }
      ],
      "name": "toggleCompleted",
      "outputs": [],
      "payable": false,
      "stateMutability": "nonpayable",
      "type": "function",
      "signature": "0x455f5024"
    }
  ],
  "bytecode": "0x6080604052600080553480156200001557600080fd5b50604080518082018252600481527f736f6e75000000000000000000000000000000000000000000000000000000006020808301919091528251808401845260028082527f697400000000000000000000000000000000000000000000000000000000000082840152845180860186528181527f31300000000000000000000000000000000000000000000000000000000000008185015285518087018752600681527f73706f72747300000000000000000000000000000000000000000000000000008186015286518088018852600181527f310000000000000000000000000000000000000000000000000000000000000081870152875180890189529384527f4d4c000000000000000000000000000000000000000000000000000000000000848701528751808901909852600e88527f6461746120616e616c7974696373000000000000000000000000000000000000958801959095526200018b969394919390929064010000000062000191810204565b6200068f565b600080546001908101808355604080516101008101825282815260208082018d81528284018d9052606083018c9052608083018b905260a083018a905260c0830189905260e0830188905293865284815291909420845181559151805192936200020493908501929190910190620005ea565b506040820151805162000222916002840191602090910190620005ea565b506060820151805162000240916003840191602090910190620005ea565b50608082015180516200025e916004840191602090910190620005ea565b5060a082015180516200027c916005840191602090910190620005ea565b5060c082015180516200029a916006840191602090910190620005ea565b5060e08201518051620002b8916007840191602090910190620005ea565b509050507ff3f3f9b45fc71aca4cd5666dc8c4c43642f83c73cc4b177d25a3bc6df1e1ff9e60005488888888888888604051808981526020018060200180602001806020018060200180602001806020018060200188810388528f818151815260200191508051906020019080838360005b83811015620003445781810151838201526020016200032a565b50505050905090810190601f168015620003725780820380516001836020036101000a031916815260200191505b5088810387528e818151815260200191508051906020019080838360005b83811015620003aa57818101518382015260200162000390565b50505050905090810190601f168015620003d85780820380516001836020036101000a031916815260200191505b5088810386528d5181528d516020918201918f019080838360005b838110156200040d578181015183820152602001620003f3565b50505050905090810190601f1680156200043b5780820380516001836020036101000a031916815260200191505b5088810385528c5181528c516020918201918e019080838360005b838110156200047057818101518382015260200162000456565b50505050905090810190601f1680156200049e5780820380516001836020036101000a031916815260200191505b5088810384528b5181528b516020918201918d019080838360005b83811015620004d3578181015183820152602001620004b9565b50505050905090810190601f168015620005015780820380516001836020036101000a031916815260200191505b5088810383528a5181528a516020918201918c019080838360005b83811015620005365781810151838201526020016200051c565b50505050905090810190601f168015620005645780820380516001836020036101000a031916815260200191505b5088810382528951815289516020918201918b019080838360005b83811015620005995781810151838201526020016200057f565b50505050905090810190601f168015620005c75780820380516001836020036101000a031916815260200191505b509f5050505050505050505050505050505060405180910390a150505050505050565b828054600181600116156101000203166002900490600052602060002090601f016020900481019282601f106200062d57805160ff19168380011785556200065d565b828001600101855582156200065d579182015b828111156200065d57825182559160200191906001019062000640565b506200066b9291506200066f565b5090565b6200068c91905b808211156200066b576000815560010162000676565b90565b61163c806200069f6000396000f3fe6080604052600436106100615763ffffffff7c01000000000000000000000000000000000000000000000000000000006000350416632aaf5fbd8114610066578063455f5024146104455780638d9776721461046f57806393a8333e1461077f575b600080fd5b34801561007257600080fd5b50610443600480360360e081101561008957600080fd5b8101906020810181356401000000008111156100a457600080fd5b8201836020820111156100b657600080fd5b803590602001918460018302840111640100000000831117156100d857600080fd5b91908080601f016020809104026020016040519081016040528093929190818152602001838380828437600092019190915250929594936020810193503591505064010000000081111561012b57600080fd5b82018360208201111561013d57600080fd5b8035906020019184600183028401116401000000008311171561015f57600080fd5b91908080601f01602080910402602001604051908101604052809392919081815260200183838082843760009201919091525092959493602081019350359150506401000000008111156101b257600080fd5b8201836020820111156101c457600080fd5b803590602001918460018302840111640100000000831117156101e657600080fd5b91908080601f016020809104026020016040519081016040528093929190818152602001838380828437600092019190915250929594936020810193503591505064010000000081111561023957600080fd5b82018360208201111561024b57600080fd5b8035906020019184600183028401116401000000008311171561026d57600080fd5b91908080601f01602080910402602001604051908101604052809392919081815260200183838082843760009201919091525092959493602081019350359150506401000000008111156102c057600080fd5b8201836020820111156102d257600080fd5b803590602001918460018302840111640100000000831117156102f457600080fd5b91908080601f016020809104026020016040519081016040528093929190818152602001838380828437600092019190915250929594936020810193503591505064010000000081111561034757600080fd5b82018360208201111561035957600080fd5b8035906020019184600183028401116401000000008311171561037b57600080fd5b91908080601f01602080910402602001604051908101604052809392919081815260200183838082843760009201919091525092959493602081019350359150506401000000008111156103ce57600080fd5b8201836020820111156103e057600080fd5b8035906020019184600183028401116401000000008311171561040257600080fd5b91908080601f0160208091040260200160405190810160405280939291908181526020018383808284376000920191909152509295506107a6945050505050565b005b34801561045157600080fd5b506104436004803603602081101561046857600080fd5b5035610bdc565b34801561047b57600080fd5b506104996004803603602081101561049257600080fd5b5035611121565b604051808981526020018060200180602001806020018060200180602001806020018060200188810388528f818151815260200191508051906020019080838360005b838110156104f45781810151838201526020016104dc565b50505050905090810190601f1680156105215780820380516001836020036101000a031916815260200191505b5088810387528e818151815260200191508051906020019080838360005b8381101561055757818101518382015260200161053f565b50505050905090810190601f1680156105845780820380516001836020036101000a031916815260200191505b5088810386528d5181528d516020918201918f019080838360005b838110156105b757818101518382015260200161059f565b50505050905090810190601f1680156105e45780820380516001836020036101000a031916815260200191505b5088810385528c5181528c516020918201918e019080838360005b838110156106175781810151838201526020016105ff565b50505050905090810190601f1680156106445780820380516001836020036101000a031916815260200191505b5088810384528b5181528b516020918201918d019080838360005b8381101561067757818101518382015260200161065f565b50505050905090810190601f1680156106a45780820380516001836020036101000a031916815260200191505b5088810383528a5181528a516020918201918c019080838360005b838110156106d75781810151838201526020016106bf565b50505050905090810190601f1680156107045780820380516001836020036101000a031916815260200191505b5088810382528951815289516020918201918b019080838360005b8381101561073757818101518382015260200161071f565b50505050905090810190601f1680156107645780820380516001836020036101000a031916815260200191505b509f5050505050505050505050505050505060405180910390f35b34801561078b57600080fd5b50610794611529565b60408051918252519081900360200190f35b600080546001908101808355604080516101008101825282815260208082018d81528284018d9052606083018c9052608083018b905260a083018a905260c0830189905260e0830188905293865284815291909420845181559151805192936108179390850192919091019061152f565b506040820151805161083391600284019160209091019061152f565b506060820151805161084f91600384019160209091019061152f565b506080820151805161086b91600484019160209091019061152f565b5060a0820151805161088791600584019160209091019061152f565b5060c082015180516108a391600684019160209091019061152f565b5060e082015180516108bf91600784019160209091019061152f565b509050507ff3f3f9b45fc71aca4cd5666dc8c4c43642f83c73cc4b177d25a3bc6df1e1ff9e60005488888888888888604051808981526020018060200180602001806020018060200180602001806020018060200188810388528f818151815260200191508051906020019080838360005b83811015610949578181015183820152602001610931565b50505050905090810190601f1680156109765780820380516001836020036101000a031916815260200191505b5088810387528e818151815260200191508051906020019080838360005b838110156109ac578181015183820152602001610994565b50505050905090810190601f1680156109d95780820380516001836020036101000a031916815260200191505b5088810386528d5181528d516020918201918f019080838360005b83811015610a0c5781810151838201526020016109f4565b50505050905090810190601f168015610a395780820380516001836020036101000a031916815260200191505b5088810385528c5181528c516020918201918e019080838360005b83811015610a6c578181015183820152602001610a54565b50505050905090810190601f168015610a995780820380516001836020036101000a031916815260200191505b5088810384528b5181528b516020918201918d019080838360005b83811015610acc578181015183820152602001610ab4565b50505050905090810190601f168015610af95780820380516001836020036101000a031916815260200191505b5088810383528a5181528a516020918201918c019080838360005b83811015610b2c578181015183820152602001610b14565b50505050905090810190601f168015610b595780820380516001836020036101000a031916815260200191505b5088810382528951815289516020918201918b019080838360005b83811015610b8c578181015183820152602001610b74565b50505050905090810190601f168015610bb95780820380516001836020036101000a031916815260200191505b509f5050505050505050505050505050505060405180910390a150505050505050565b610be46115ad565b600082815260016020818152604092839020835161010080820186528254825282850180548751600297821615909302600019011695909504601f8101859004850282018501909652858152909491938584019391929091830182828015610c8d5780601f10610c6257610100808354040283529160200191610c8d565b820191906000526020600020905b815481529060010190602001808311610c7057829003601f168201915b5050509183525050600282810180546040805160206001841615610100026000190190931694909404601f81018390048302850183019091528084529381019390830182828015610d1f5780601f10610cf457610100808354040283529160200191610d1f565b820191906000526020600020905b815481529060010190602001808311610d0257829003601f168201915b505050918352505060038201805460408051602060026001851615610100026000190190941693909304601f8101849004840282018401909252818152938201939291830182828015610db35780601f10610d8857610100808354040283529160200191610db3565b820191906000526020600020905b815481529060010190602001808311610d9657829003601f168201915b505050918352505060048201805460408051602060026001851615610100026000190190941693909304601f8101849004840282018401909252818152938201939291830182828015610e475780601f10610e1c57610100808354040283529160200191610e47565b820191906000526020600020905b815481529060010190602001808311610e2a57829003601f168201915b505050918352505060058201805460408051602060026001851615610100026000190190941693909304601f8101849004840282018401909252818152938201939291830182828015610edb5780601f10610eb057610100808354040283529160200191610edb565b820191906000526020600020905b815481529060010190602001808311610ebe57829003601f168201915b505050918352505060068201805460408051602060026001851615610100026000190190941693909304601f8101849004840282018401909252818152938201939291830182828015610f6f5780601f10610f4457610100808354040283529160200191610f6f565b820191906000526020600020905b815481529060010190602001808311610f5257829003601f168201915b505050918352505060078201805460408051602060026001851615610100026000190190941693909304601f81018490048402820184019092528181529382019392918301828280156110035780601f10610fd857610100808354040283529160200191611003565b820191906000526020600020905b815481529060010190602001808311610fe657829003601f168201915b505050919092525050506000838152600160208181526040909220835181558284015180519495508594919361103e9385019291019061152f565b506040820151805161105a91600284019160209091019061152f565b506060820151805161107691600384019160209091019061152f565b506080820151805161109291600484019160209091019061152f565b5060a082015180516110ae91600584019160209091019061152f565b5060c082015180516110ca91600684019160209091019061152f565b5060e082015180516110e691600784019160209091019061152f565b50506040805184815290517fc1fa7142cfb933d0855114a3bffde296944c30b727f297c14d0db4d553d3a5c792509081900360200190a15050565b600160208181526000928352604092839020805481840180548651600296821615610100026000190190911695909504601f810185900485028601850190965285855290949193929091908301828280156111bd5780601f10611192576101008083540402835291602001916111bd565b820191906000526020600020905b8154815290600101906020018083116111a057829003601f168201915b50505060028085018054604080516020601f600019610100600187161502019094169590950492830185900485028101850190915281815295969594509092509083018282801561124f5780601f106112245761010080835404028352916020019161124f565b820191906000526020600020905b81548152906001019060200180831161123257829003601f168201915b5050505060038301805460408051602060026001851615610100026000190190941693909304601f81018490048402820184019092528181529495949350908301828280156112df5780601f106112b4576101008083540402835291602001916112df565b820191906000526020600020905b8154815290600101906020018083116112c257829003601f168201915b5050505060048301805460408051602060026001851615610100026000190190941693909304601f810184900484028201840190925281815294959493509083018282801561136f5780601f106113445761010080835404028352916020019161136f565b820191906000526020600020905b81548152906001019060200180831161135257829003601f168201915b5050505060058301805460408051602060026001851615610100026000190190941693909304601f81018490048402820184019092528181529495949350908301828280156113ff5780601f106113d4576101008083540402835291602001916113ff565b820191906000526020600020905b8154815290600101906020018083116113e257829003601f168201915b5050505060068301805460408051602060026001851615610100026000190190941693909304601f810184900484028201840190925281815294959493509083018282801561148f5780601f106114645761010080835404028352916020019161148f565b820191906000526020600020905b81548152906001019060200180831161147257829003601f168201915b5050505060078301805460408051602060026001851615610100026000190190941693909304601f810184900484028201840190925281815294959493509083018282801561151f5780601f106114f45761010080835404028352916020019161151f565b820191906000526020600020905b81548152906001019060200180831161150257829003601f168201915b5050505050905088565b60005481565b828054600181600116156101000203166002900490600052602060002090601f016020900481019282601f1061157057805160ff191683800117855561159d565b8280016001018555821561159d579182015b8281111561159d578251825591602001919060010190611582565b506115a99291506115f3565b5090565b6101006040519081016040528060008152602001606081526020016060815260200160608152602001606081526020016060815260200160608152602001606081525090565b61160d91905b808211156115a957600081556001016115f9565b9056fea165627a7a723058201e9b0e15381e5d222ff16eab774e4c5212a08fffb2bfd1a0bae6717e21228ec90029",
  "source": "pragma solidity ^0.5.0;\n\ncontract TodoList {\n  uint public Count = 0;\n\n  struct Task{\n    uint id;\n    string name;\n    string branch;\n    string interest;\n    string cgpa;\n    string intern;\n    string tech1;\n    string tech2;\n  }\n\n  mapping (uint => Task) public tasks;\n\n  event TaskCreated(\n    uint id,\n    string name,\n    string branch,\n    string interest,\n    string cgpa,\n    string intern,\n    string tech1,\n    string tech2\n  );\n\n  event TaskCompleted(\n    uint id\n  );\n\n  constructor() public{\n    createTask(\"sonu\", \"it\", \"10\", \"sports\", \"1\", \"ML\", \"data analytics\");\n  }\n\n  function createTask(string memory _name, string memory _branch, string memory _interest, string memory _cgpa, string memory _intern, string memory _tech1, string memory _tech2) public {\n    Count ++;\n    tasks[Count] = Task(Count, _name, _branch, _interest, _cgpa, _intern, _tech1, _tech2);\n    emit TaskCreated(Count, _name, _branch, _interest, _cgpa, _intern, _tech1, _tech2);\n  }\n\n  function toggleCompleted(uint _id) public{\n    Task memory _task = tasks[_id];\n    tasks[_id] = _task;\n    emit TaskCompleted(_id);\n  }\n}\n",
  "sourcePath": "C:/Users/dell/Desktop/new dapp/contracts/TodoList.sol",
  "compiler": {
    "name": "solc",
    "version": "0.5.0+commit.1d4f565a.Emscripten.clang"
  },
  "schemaVersion": "3.0.2",
  "updatedAt": "2019-04-04T04:07:34.995Z",
  "devdoc": {
    "methods": {}
  },
  "userdoc": {
    "methods": {}
  }
}